{
    "contractName": "simpleStorage",
    "abi": [
        {
            "inputs": [
                {
                    "internalType": "uint256",
                    "name": "_inputvar",
                    "type": "uint256"
                }
            ],
            "name": "store",
            "outputs": [],
            "stateMutability": "nonpayable",
            "type": "function"
        }
    ],
    "bytecode": "6080604052600d600055600280546001600160a01b0319167385c302f0cd0ae8cb23c82d191310511c1e46f37b179055348015603a57600080fd5b50608d806100496000396000f3fe6080604052348015600f57600080fd5b506004361060285760003560e01c80636057361d14602d575b600080fd5b603d6038366004603f565b600055565b005b600060208284031215605057600080fd5b503591905056fea2646970667358221220f7e2d9757517884f53d321b46c25f440b05492de235a90ce8601a911d8a8be2864736f6c634300080a0033",
    "sourcePath": "/home/kevinyar/SolidityBasic/simpleStorage.sol",
    "compiler": {
        "name": "solc",
        "version": "0.8.10+commit.fc410830"
    },
    "functionHashes": {
        "store(uint256)": "6057361d"
    },
    "gasEstimates": {
        "creation": {
            "codeDepositCost": "28200",
            "executionCost": "46423",
            "totalCost": "74623"
        },
        "external": {
            "store(uint256)": "22290"
        }
    }
}